:080000000C9443000C94000075
:100008000C9400000C9400000C9400000C94000068
:100018000C9400000C9400000C9400000C94000058
:100028000C9400000C9400000C9400000C94000048
:100038000C9400000C9400000C9400000C94000038
:100048000C9400000C9400000C940000766F6C7403
:100058006167653D25322E326600560080C02D4E00
:10006800414E000001002D4E414E00494E46000011
:10007800020060026400010064026C000000F89451
:10008800EE27ECBBF1E0FBBFEBBFE5BF8DE0A2E0E4
:10009800BB27ED938A95E9F780E098E0A0E6ED9319
:1000A8000197E9F7E8E7F0E085919591009761F00D
:1000B800A591B59105901590BF01F00105900D929D
:1000C8000197E1F7FB01F0CFEFE5EDBFE8E0EEBF08
:1000D800C0E6D2E00C947D00AA93E881E7B98BE1F1
:1000E8008A95F1F7369A349BFECF349AE4B1F5B18C
:1000F800FDC06C97E0E0EABBEBBBEFEFE4BBE0E0F0
:10010800E5BBE7B9E5E8E6B9E0E0E0BFA0E1C2D0C9
:10011800A0E0E2DF662777270E946207E88FF98F61
:100128006A8F7B8FA88DB98D8A8D9B8DE0E0F0E07A
:1001380060EA70E40E94EC07DF01CB01E0E0F0EC3C
:100148006FE774E40E943A08EC8BFD8B6E8B7F8B13
:10015800AC89BD898E899F890E94EF05AC89BD89CC
:100168008E899F890E949C070E94F605FE01FA93DA
:10017800EA93E4E5F0E0FA93EA93EC89FD896E8965
:100188007F890E94230984E00E94AC042896E0E05D
:10019800EA93A0E02FD0DE015BD0EDE0EA93A0E087
:1001A80029D0A2E6B0E063D0A4EFB1E00E94EC064B
:1001B800AFCFFFCFAA93E5B3EF70AE2FE881E07F12
:1001C800EA2BE5BB8DE08A95F1F7AA9A8DE08A952E
:1001D800F1F7AA988DE08A95F1F788C0AA93A881CB
:1001E800E9DFE881E295E883A881E4DF85E88A957C
:1001F800F1F77CC0AA93E881F0E0E05AFD4FE08176
:10020800A981AE0FEBDF5980488022960895A2E0BD
:100218000E94FB05ACE0E2DFA1E00E94FB05E0E004
:100228004E2E5E2E0895AA93A881AA3011F0571475
:1002380048F0E0E0EA934394A42DDCDFA881AA30DB
:1002480009F454C05394A89AA881C8DFA8984EC04E
:10025800BA93AA931A93A981BA81ED91A983BA8313
:100268001E2FE03019F0A12FDEDFF5CF10C0BA93B2
:10027800AA931A93E981FA813196E983FA8331972F
:10028800E4911E2FE03019F0A12FCDDFF3CF1881B4
:1002980023960895AA93E4B3E06FE4BBA29AA09AC8
:1002A800A19AAA98A898A9987880E881E058E0933C
:1002B8006202E881E054E0936302A4E1B0E00E94A6
:1002C800EC060E9401060E9401060E940106A0E2B7
:1002D80071DF88EC90E00197F1F7A8E27FDFA4E0F6
:1002E8007DDFA5E87BDFA6E079DF91DF2196089521
:1002F800BA93AA931A930A93AA81BB8112960E9471
:100308000A09309729F1AA81BB8114960E940A092B
:100318008F01309761F00230E0E01E0780F0F801AD
:1003280031978F01AA81BB811496ED93FC93AA8122
:10033800BB8112960E9409063197AC81A083AA81DD
:10034800BB810E940A09FF2312F00E94090606C019
:10035800AA81BB81EFEFFFEFED93FC931981088130
:10036800259608950E940F06E0E8EA83EFE3EB8301
:100378000E944009EE85FF85EF3FAFEFFA0749F489
:10038800E885F985FA93EA93A6E6B0E00E94E004CE
:10039800C1C0EF3FAFE7FA0749F4E885F985FA935A
:1003A800EA93A7E6B0E00E94E004B4C0AB85A730AA
:1003B80010F0E6E0EB871B85E12F1150E03029F0C3
:1003C8000E9416060E941B06F7CFEC85FD856E85F8
:1003D8007F850E943A0931F430E00E9416060E9497
:1003E8001B0631C03B850E94200609F008F40DC0A9
:1003F8000E9416060E941B060E94200628F00E94F2
:100408002B060E943006F8CF0FC00E94200640F449
:100418000E942B060E94EF050E943C063150F5CF42
:100428000E9416060E941B06EC85FD856E857F8559
:100438000E9441060E943C060E94200620F00E946D
:100448002B060E94300610E0EB85E117B8F1AC816D
:10045800BD818E819F810E9448060E944106DF016E
:10046800CB010E9437050E941B06EC81FD816E813D
:100478007F810E942B060E943A080E9429070E2FAE
:100488000E944F060E945606FF27662777270E947C
:100498006207AC81BD818E819F810E94EC070E941A
:1004A8002B060E945B060E943C06E12F1F5FE0308E
:1004B80059F60E944F06EEE2EC93C6CF0E94600602
:1004C8003197AA85A08330302CF43195A885B98559
:1004D800EDE203C0A885B985EBE2EC930E946006C3
:1004E8000E9460063197BF01A32FEAE00E94C4086A
:1004F800E05DDB01EC930E9460063197BF01A32FFA
:10050800EAE00E94EE08E05DDB01EC93A885B9857E
:10051800E0E0EC930E94470960960895BA93AA9385
:10052800EF9761970E943E0910E0FE01E85AFF4FDD
:100538000190F081E02DE887F987FE01EA5AFF4F24
:100548000190F081E02DEE83FF83AE81BF81E0E072
:10055800F0E0ED93FC93DE01A45ABF4F0E94090618
:100568003197E4912E2FE03009F4E9C1E12FE03012
:1005780039F4253211F411E002C00E946606DEC18A
:10058800E130C1F4253219F40E946606D6C112E0A2
:10059800E0E0ED8B00E02D3211F401E0CFC12B3209
:1005A80019F4EBE2ED8BCAC1203219F4E0E2ED8BCD
:1005B800C5C102C0E23039F450E013E0203311F431
:1005C8000068BCC102C0E33091F4203310F02A3334
:1005D80008F007C0AAE05A9F502DE22FE0535E0FA3
:1005E800ADC140E02E3211F414E0A8C10FC0E430D0
:1005F80099F4203310F02A3308F008C00062AAE00A
:100608004A9F402DE22FE0534E0F98C12C3619F423
:10061800026015E093C103C0E53009F08FC1E22FF5
:10062800E33659F40E946D060E9474060E946D0616
:10063800A481AA930E947B0680C1E53411F0E536B7
:1006480009F403C0E63609F048C0FE017696EE8745
:10065800FF870E9481060E940E090E9488060E9458
:100668008D06AD85AA2332F0AD89AB3259F0A032A0
:1006780081F017C00E948F060E94F6060E94880625
:10068800EDE2ED8B07FF05C0ED89EA930E947B063A
:1006980008C0EE85FF853196EE87FF873197AD89D3
:1006A800A08305FF46E0263651F40E948F060E947B
:1006B80023094A93AB89BC890E944E0509C00E9450
:1006C8008F060E9423094A932A93AC89BD894ADE82
:1006D800FE0176960E9494061EC0E33739F40E9404
:1006E8008D060E949C060E9494060EC0E037C1F455
:1006F8000E948D060E949C06EE87FF87AE85BF8507
:100708000E94F9041E2F08600F77403011F041173E
:1007180008F001C0142F40E0E0E0EC8B30E06DC041
:10072800E43611F0E93611F4046002C0E537A1F4AB
:10073800EAE0EC8B01FF08C0E0E0FAEC6AE97BE351
:100748000E94F6051AE022C0E0E1F7E260E070E0FE
:100758000E94F60515E01AC0E83511F4086003C0D8
:10076800E83709F0EAC0E0E1EC8B01FF08C0E0E0FF
:10077800F0E060E070E10E94F60518E007C0E0E0F4
:10078800F0E160E070E00E94F60514E0403011F0FE
:100798000F7701C041E001FF08C00E948D060E944A
:1007A800810614960E940E090FC002FF07C00E941E
:1007B8008D060E949C060E94B10806C00E948D0604
:1007C8000E949C0666277727EA87FB876C877D87C8
:1007D80002FF12C0AD85AA2342F40E948F060E9430
:1007E800A3080E948806EDE2ED8BED89E03019F050
:1007F8001F5F4F5F01C00B7F342F00FD14C015171A
:1008080010F4351708F00FC007FF08C002FF04C036
:100818000B7F2D89115001C020E301C020E20E9406
:1008280066065150ECCF141790F4006102FF06C021
:100838000E94A10609F0515011504150E0E3EA939B
:100848000E947B06503009F051504150ECCF312FB7
:10085800EC89E030B9F43030A1F003FF06C0EE8532
:10086800FF852591EE87FF8705C0AE85BF852D9151
:10087800AE87BF870E946606503009F0515031504C
:10088800EACF51C00E94B3060E94C9082E2F2A3011
:1008980030F003FF02C0295C01C0295A01C0205D65
:1008A80004FD21C0213360F4A889B9898A899B890C
:1008B800A130E0E0BE07E0E08E07E0E09E0709F423
:1008C8000BC0431740F4531710F000FF01C010C0CD
:1008D80020E207FF08C020E3006102FF04C00E9475
:1008E800A10609F051500E946606503009F0515097
:1008F80031500E94B3060E94FA080E948806EC89CB
:10090800A889B9898A899B89FF27662777270E9442
:10091800C9080E94F605E889F9896A897B890E94D5
:100928003A0909F0AFCF00FF08C0503031F05150FC
:10093800E0E2EA930E947B06F8CF10E00CCEAE818D
:10094800BF810E940A090E944509EF966F96089593
:10095800FF92F82E26970E9440090E94BC06309705
:1009680019F4EFEFFFEF23C0DE0116960E949F08EF
:100978008D010E94BC06EE83FF83E0E0E887E987EB
:10098800DE011A960E949F080E940A09FA93EA93C8
:100998001A930A93ECE7F1E0FA93EA93DE011A96C8
:1009A800BDDD9F01AE81BF81E0E0EC93F9010E94BB
:1009B80047092A96FF900895BA93AA93E991F99165
:1009C800A991B991CD0105900D920020E1F7FC01A4
:1009D8000895BA93AA93A991B991EE27FF276D912B
:1009E800662311F03196FBCF0895BA93AA93AA27EC
:1009F800BB27E991F9910590002011F01196FBCFE2
:100A0800FD0108950E9428097B816A81F981E881A6
:100A180077FB770F67FD7160972F9E5781F078F00D
:100A2800983190F4AA27BB27882708948795B7950B
:100A3800A7959A95D1F7EA23FB23682305C0E89484
:100A48007727EE27FF2766276F77769508F4606883
:100A580077F9A991B99189919991EA17FB076807E4
:100A6800790797FB08950E9428090E9419090E9496
:100A780006050E941E0919F40E94140909C0E6F728
:100A88000E941409A0E0B0E080E89FE30E94950767
:100A980024960895C0D0E0E0EA83EFE3EB831A934D
:100AA8000A93EB85FC85EF3FAFEFFA0731F467D186
:100AB800AEE6B0E00E94E0048AC0EF3FAFE7FA0775
:100AC80031F45DD1AFE6B0E00E94E00480C0AC85AF
:100AD800AA2352F4E985FA856B857C850E94F6067F
:100AE80053D157D1EDE2EC93A885A73010F0E6E09A
:100AF800E8871885E12F1150E03021F051D1C4D09A
:100B080054D1F8CF57D10E949C073ED110E0E0E0C5
:100B1800F0E060E87FE349D14DD10E947F0868F09A
:100B28003FD159D042D11F5F173230F028D1A3E707
:100B3800B0E00E94E0044BC0EFCF103021F429D17F
:100B4800E0E3EC9320C0E12F1150E030E1F028D130
:100B58009BD093D0DF01CB010E94370526D12AD143
:100B68000E943A080E9429070E2F13D19BD0F0E06B
:100B780017D10E94B1080E9462070E94EC0723D196
:100B880096D002D1E0CFE885E030E9F002D1EEE27C
:100B9800EC93E885E150E887EF5FA9F014D11BD00A
:100BA800F3D0E985FA856B857C850E9429070E2F8D
:100BB800F0D078D0F0E007D10E94B1080E94620717
:100BC80076D0E2D0E6CFAE81BF81E0E0EC93198128
:100BD80008812D960895E0E0F0E060E271E40E945B
:100BE800EC070895E88BF98B6A8B7B8B08950E943C
:100BF800F200A3E0B0E00C94EC06A0E30E94DE0053
:100C080088EC90E00197F1F70895ED91FD91319608
:100C1800FE93EE930895BA93AA932497E0E0E883AD
:100C2800E9830895AC81BD818E819F81D4CFEC8307
:100C3800FD836E837F830895EC81FD816E817F81C2
:100C4800AC85BD858E859F850E947F080895AC85FB
:100C5800BD858E859F850895EDECFCEC6CEC7DE3FD
:100C68000E94EC07EC87FD876E877F873F5F0895BA
:100C7800EC87FD876E877F870895A0E0B0E080E06D
:100C88009FE30E949C070895EDECFCEC6CEC7DE37F
:100C98000E94EC070895A885B9851196A887B98799
:100CA80011970895E02FE05DEC93E02F08950E94DE
:100CB8002D090E9495070895E885F9853196E887FA
:100CC800F98708952A93AF81B885E985FA8509954A
:100CD8000895FE01E65AFF4F0190F081E02D089536
:100CE8003497DE01A65ABF4FED93FC930895AF8168
:100CF800B885E985FA8509950895DE01A65ABF4F9A
:100D08000D90BC91A02D0895EA87FB876C877D879D
:100D18000895DFDFE5CFEA85FB856C857D8508953D
:100D2800EE87FF87AE85BF850E94ED041E2F0895CC
:100D3800E4DF14960E940A0908950B7FED89EA936F
:100D4800DE01A95ABF4F0D90BC91A02DFE01E75AB4
:100D5800FF4F0190F081E02D099550300895E88902
:100D6800F9896A897B89AA85BB858C859D850895C3
:100D7800DE011C960E949F080E940A090895EE81D0
:100D8800FF81FA93EA930895E987FA876B877C874E
:100D98000895AE81BF811196AE83BF8311970895E0
:100DA800AA81BB818C819D810895EA83FB836C8332
:100DB8007D830895EA81FB816C817D81A985BA854F
:100DC8008B859C850895A985BA858B859C85089512
:100DD800109639F080ED97E00197F1F7A8951197F3
:100DE800C9F7089530976040704009F07058089529
:100DF800552342F4503811F4E0FF04C03196691FBE
:100E0800791F6BF050E8572711F45F93CFC05F3F0D
:100E180031F0660F000C57956795752F08955F930D
:100E280000200AF0CFC0C8C050E8192E1522880F3C
:100E3800991F9527550F879550E8072E0522660FAD
:100E4800771F7527550F67950895689401C0E89432
:100E58005F93F2DF703818F07F3F08F4A7C056E1BF
:100E6800571BAAF4519558300EF4593030F0EFEF73
:100E7800FFEF6FEF7FE777F91AC077275523B9F0AF
:100E8800EE0FFF1F661F771F5A95D1F710C07727FF
:100E9800583028F0EF2FF62F672F5850F9CF5523E9
:100EA80031F076956795F795E7955A95D1F7002033
:100EB8000AF445D15F910895689401C0E894309789
:100EC80060407040B1F0002426F0772312F40094BB
:100ED80036D1172E7EE1112032F07A95EE0FFF1FE2
:100EE800661F111CF9CFEF2FF62F612D5F938ADF54
:100EF8005F9108954F93AF01FD01DA01AB01BC0189
:100F0800CA01402D012C142E4F910895EA0FFB1FA2
:100F1800681F0895E095F0956095EF5FFF4F6F4F5C
:100F280008955F9381DF903871F150E8152604C069
:100F38005F937ADF903839F1703821F1572F591BB8
:100F48002BF112F4D7DFFACF583118F0AA27BB27B4
:100F58008827583028F0AB2FB82F88275850F9CF5A
:100F6800552329F08695B795A7955A95D9F7502D09
:100F7800512572F0CBDF38F46795F795E7957395AF
:100F880013F420C0B7DF3EDF5F910895D8F7FBCF99
:100F9800EA1BFB0B680B51F010F40094BBDF6623CF
:100FA80092F3EE0FFF1F661F7A95CBF7EE27FF2708
:100FB800662777275F910895EFEFFFEF6FE77FEFE1
:100FC8005F910895EFEFFFEF6FE77FE75F91089577
:100FD8005F932ADF703851F3903841F30124089465
:100FE800791F23F41CF300203AF3ECCF0F921F93E0
:100FF8002F933F934F93112722279927689FA0018A
:101008008F9F302D410D591F6B9F300D411D591F6A
:101018008E9F27D0BF9F25D06A9F23D0BE9F1DD00B
:10102800AF9F1BD0AE9F110D291F391F491F591F94
:10103800E32FF42F652F522F4F913F912F911F913E
:101048000F9066232AF0550FEE1FFF1F661F02C080
:1010580073954BF2CDDE5F910895100D211D391F58
:1010680002C0200D311D491F591F08955F93DCDE12
:10107800703821F411200AF49FCFA4CF903809F4D6
:1010880095CF01240894970B1BF4D4F30020F3CFD9
:10109800792F1F932F933F934F93112411272227C2
:1010A80033274427552790E2AE17BF078607410725
:1010B80030F0AE1BBF0B860B410B089401C088941F
:1010C800551F221F331F111CAA1FBB1F881F441F37
:1010D8009A9551F7F901612D4F913F912F911F91E9
:1010E800662332F0550FEE1FFF1F661F7A9543F2F5
:1010F8007FDE5F91089599239AF0772342F097173E
:1011080048F029F4AE17BF07860720F031F098940D
:101118008894089598940894089518948894089544
:101128007723C2F7971798F3A9F7EA17FB07680719
:1011380088F399F3ECCF0024AF0DB01D0895F09516
:1011480060957095E195FF4F6F4F7F4F0895FE2F83
:10115800FF0FFF0B6F2F7F2F08956F2F660F660B02
:10116800762F0895002498E0AA0F001C0E1A10F498
:101178000E0E01C0A1609A95B9F7EA2FA02D089527
:1011880039D0F0DF0EF4E19508953F934F935F93C4
:10119800002411244427552730E2AA0FBB1F881FBB
:1011A800991F001C111C441F551F0E1A1F0A460BBD
:1011B800570B28F40E0E1F1E461F571F01C0A160B3
:1011C8003A9559F7FD01BC01D001CA015F914F91D1
:1011D8003F910895E894A7FF02C0A1956894E7FDA0
:1011E800E195C0DFEA2F0EF4E1950895CEDFFD0109
:1011F800BC010895E894E7FF02C0E1956894A7FF51
:1012080004C0A19500F8039400FA0895ED91FC91AB
:1012180011970895ED91FD916D917C911397089523
:10122800E881F9816A817B810895A881B9818A81E1
:101238009B810895E883F9836A837B8308957A9371
:101248006A93FA93EA9308959A938A93BA93AA931E
:101258000895182E862F612D192E972F712D1B2E6C
:10126800BF2FF12D1A2EAE2FE12D08953097604033
:10127800704008955A934A933A932A931A930A937B
:1012880008955D814C813B812A81198108810895E7
:00000001FF
